{
  "contractName": "CustomERC721",
  "abi": [
    {
      "inputs": [],
      "stateMutability": "nonpayable",
      "type": "constructor"
    },
    {
      "anonymous": false,
      "inputs": [
        {
          "indexed": true,
          "internalType": "address",
          "name": "owner",
          "type": "address"
        },
        {
          "indexed": true,
          "internalType": "address",
          "name": "approved",
          "type": "address"
        },
        {
          "indexed": true,
          "internalType": "uint256",
          "name": "tokenId",
          "type": "uint256"
        }
      ],
      "name": "Approval",
      "type": "event"
    },
    {
      "anonymous": false,
      "inputs": [
        {
          "indexed": true,
          "internalType": "address",
          "name": "owner",
          "type": "address"
        },
        {
          "indexed": true,
          "internalType": "address",
          "name": "operator",
          "type": "address"
        },
        {
          "indexed": false,
          "internalType": "bool",
          "name": "approved",
          "type": "bool"
        }
      ],
      "name": "ApprovalForAll",
      "type": "event"
    },
    {
      "anonymous": false,
      "inputs": [
        {
          "indexed": true,
          "internalType": "address",
          "name": "from",
          "type": "address"
        },
        {
          "indexed": true,
          "internalType": "address",
          "name": "to",
          "type": "address"
        },
        {
          "indexed": true,
          "internalType": "uint256",
          "name": "tokenId",
          "type": "uint256"
        }
      ],
      "name": "Transfer",
      "type": "event"
    },
    {
      "inputs": [
        {
          "internalType": "uint256",
          "name": "",
          "type": "uint256"
        }
      ],
      "name": "_offeredForSale",
      "outputs": [
        {
          "internalType": "uint256",
          "name": "",
          "type": "uint256"
        }
      ],
      "stateMutability": "view",
      "type": "function",
      "constant": true
    },
    {
      "inputs": [
        {
          "internalType": "address",
          "name": "to",
          "type": "address"
        },
        {
          "internalType": "uint256",
          "name": "tokenId",
          "type": "uint256"
        }
      ],
      "name": "approve",
      "outputs": [],
      "stateMutability": "nonpayable",
      "type": "function"
    },
    {
      "inputs": [
        {
          "internalType": "address",
          "name": "owner",
          "type": "address"
        }
      ],
      "name": "balanceOf",
      "outputs": [
        {
          "internalType": "uint256",
          "name": "",
          "type": "uint256"
        }
      ],
      "stateMutability": "view",
      "type": "function",
      "constant": true
    },
    {
      "inputs": [
        {
          "internalType": "uint256",
          "name": "tokenId",
          "type": "uint256"
        }
      ],
      "name": "getApproved",
      "outputs": [
        {
          "internalType": "address",
          "name": "",
          "type": "address"
        }
      ],
      "stateMutability": "view",
      "type": "function",
      "constant": true
    },
    {
      "inputs": [
        {
          "internalType": "address",
          "name": "owner",
          "type": "address"
        },
        {
          "internalType": "address",
          "name": "operator",
          "type": "address"
        }
      ],
      "name": "isApprovedForAll",
      "outputs": [
        {
          "internalType": "bool",
          "name": "",
          "type": "bool"
        }
      ],
      "stateMutability": "view",
      "type": "function",
      "constant": true
    },
    {
      "inputs": [],
      "name": "name",
      "outputs": [
        {
          "internalType": "string",
          "name": "",
          "type": "string"
        }
      ],
      "stateMutability": "view",
      "type": "function",
      "constant": true
    },
    {
      "inputs": [
        {
          "internalType": "uint256",
          "name": "tokenId",
          "type": "uint256"
        }
      ],
      "name": "ownerOf",
      "outputs": [
        {
          "internalType": "address",
          "name": "",
          "type": "address"
        }
      ],
      "stateMutability": "view",
      "type": "function",
      "constant": true
    },
    {
      "inputs": [
        {
          "internalType": "address",
          "name": "from",
          "type": "address"
        },
        {
          "internalType": "address",
          "name": "to",
          "type": "address"
        },
        {
          "internalType": "uint256",
          "name": "tokenId",
          "type": "uint256"
        }
      ],
      "name": "safeTransferFrom",
      "outputs": [],
      "stateMutability": "nonpayable",
      "type": "function"
    },
    {
      "inputs": [
        {
          "internalType": "address",
          "name": "from",
          "type": "address"
        },
        {
          "internalType": "address",
          "name": "to",
          "type": "address"
        },
        {
          "internalType": "uint256",
          "name": "tokenId",
          "type": "uint256"
        },
        {
          "internalType": "bytes",
          "name": "_data",
          "type": "bytes"
        }
      ],
      "name": "safeTransferFrom",
      "outputs": [],
      "stateMutability": "nonpayable",
      "type": "function"
    },
    {
      "inputs": [
        {
          "internalType": "address",
          "name": "operator",
          "type": "address"
        },
        {
          "internalType": "bool",
          "name": "approved",
          "type": "bool"
        }
      ],
      "name": "setApprovalForAll",
      "outputs": [],
      "stateMutability": "nonpayable",
      "type": "function"
    },
    {
      "inputs": [
        {
          "internalType": "bytes4",
          "name": "interfaceId",
          "type": "bytes4"
        }
      ],
      "name": "supportsInterface",
      "outputs": [
        {
          "internalType": "bool",
          "name": "",
          "type": "bool"
        }
      ],
      "stateMutability": "view",
      "type": "function",
      "constant": true
    },
    {
      "inputs": [],
      "name": "symbol",
      "outputs": [
        {
          "internalType": "string",
          "name": "",
          "type": "string"
        }
      ],
      "stateMutability": "view",
      "type": "function",
      "constant": true
    },
    {
      "inputs": [
        {
          "internalType": "uint256",
          "name": "tokenId",
          "type": "uint256"
        }
      ],
      "name": "tokenURI",
      "outputs": [
        {
          "internalType": "string",
          "name": "",
          "type": "string"
        }
      ],
      "stateMutability": "view",
      "type": "function",
      "constant": true
    },
    {
      "inputs": [
        {
          "internalType": "address",
          "name": "from",
          "type": "address"
        },
        {
          "internalType": "address",
          "name": "to",
          "type": "address"
        },
        {
          "internalType": "uint256",
          "name": "tokenId",
          "type": "uint256"
        }
      ],
      "name": "transferFrom",
      "outputs": [],
      "stateMutability": "nonpayable",
      "type": "function"
    },
    {
      "inputs": [
        {
          "internalType": "address",
          "name": "to",
          "type": "address"
        },
        {
          "internalType": "uint256",
          "name": "tokenId",
          "type": "uint256"
        }
      ],
      "name": "mintProtect",
      "outputs": [],
      "stateMutability": "nonpayable",
      "type": "function"
    },
    {
      "inputs": [
        {
          "internalType": "uint256",
          "name": "tokenId",
          "type": "uint256"
        },
        {
          "internalType": "uint256",
          "name": "price",
          "type": "uint256"
        }
      ],
      "name": "sellToken",
      "outputs": [],
      "stateMutability": "payable",
      "type": "function",
      "payable": true
    },
    {
      "inputs": [
        {
          "internalType": "uint256",
          "name": "tokenId",
          "type": "uint256"
        }
      ],
      "name": "buyToken",
      "outputs": [],
      "stateMutability": "payable",
      "type": "function",
      "payable": true
    },
    {
      "inputs": [
        {
          "internalType": "uint256",
          "name": "tokenId",
          "type": "uint256"
        }
      ],
      "name": "onSale",
      "outputs": [
        {
          "internalType": "bool",
          "name": "",
          "type": "bool"
        }
      ],
      "stateMutability": "view",
      "type": "function",
      "constant": true
    }
  ],
  "bytecode": "0x60806040523480156200001157600080fd5b506040518060400160405280600b81526020017f4d79437573746f6d4e66740000000000000000000000000000000000000000008152506040518060400160405280600381526020017f4d434e0000000000000000000000000000000000000000000000000000000000815250816000908051906020019062000096929190620000f9565b508060019080519060200190620000af929190620000f9565b50505033600660006101000a81548173ffffffffffffffffffffffffffffffffffffffff021916908373ffffffffffffffffffffffffffffffffffffffff1602179055506200020e565b8280546200010790620001d8565b90600052602060002090601f0160209004810192826200012b576000855562000177565b82601f106200014657805160ff191683800117855562000177565b8280016001018555821562000177579182015b828111156200017657825182559160200191906001019062000159565b5b5090506200018691906200018a565b5090565b5b80821115620001a55760008160009055506001016200018b565b5090565b7f4e487b7100000000000000000000000000000000000000000000000000000000600052602260045260246000fd5b60006002820490506001821680620001f157607f821691505b60208210811415620002085762000207620001a9565b5b50919050565b612e5b806200021e6000396000f3fe6080604052600436106101095760003560e01c80636352211e11610095578063b43a76f111610064578063b43a76f114610371578063b88d4fde146103ae578063bf8c566e146103d7578063c87b56dd14610400578063e985e9c51461043d57610109565b80636352211e146102a357806370a08231146102e057806395d89b411461031d578063a22cb4651461034857610109565b80631897bcf3116100dc5780631897bcf3146101dc5780631b541205146101f857806323b872dd146102355780632d296bf11461025e57806342842e0e1461027a57610109565b806301ffc9a71461010e57806306fdde031461014b578063081812fc14610176578063095ea7b3146101b3575b600080fd5b34801561011a57600080fd5b5061013560048036038101906101309190611b16565b61047a565b6040516101429190611b5e565b60405180910390f35b34801561015757600080fd5b5061016061055c565b60405161016d9190611c12565b60405180910390f35b34801561018257600080fd5b5061019d60048036038101906101989190611c6a565b6105ee565b6040516101aa9190611cd8565b60405180910390f35b3480156101bf57600080fd5b506101da60048036038101906101d59190611d1f565b610673565b005b6101f660048036038101906101f19190611d5f565b61078b565b005b34801561020457600080fd5b5061021f600480360381019061021a9190611c6a565b610947565b60405161022c9190611dae565b60405180910390f35b34801561024157600080fd5b5061025c60048036038101906102579190611dc9565b61095f565b005b61027860048036038101906102739190611c6a565b6109bf565b005b34801561028657600080fd5b506102a1600480360381019061029c9190611dc9565b610b2d565b005b3480156102af57600080fd5b506102ca60048036038101906102c59190611c6a565b610b4d565b6040516102d79190611cd8565b60405180910390f35b3480156102ec57600080fd5b5061030760048036038101906103029190611e1c565b610bff565b6040516103149190611dae565b60405180910390f35b34801561032957600080fd5b50610332610cb7565b60405161033f9190611c12565b60405180910390f35b34801561035457600080fd5b5061036f600480360381019061036a9190611e75565b610d49565b005b34801561037d57600080fd5b5061039860048036038101906103939190611c6a565b610d5f565b6040516103a59190611b5e565b60405180910390f35b3480156103ba57600080fd5b506103d560048036038101906103d09190611fea565b610d7f565b005b3480156103e357600080fd5b506103fe60048036038101906103f99190611d1f565b610de1565b005b34801561040c57600080fd5b5061042760048036038101906104229190611c6a565b610def565b6040516104349190611c12565b60405180910390f35b34801561044957600080fd5b50610464600480360381019061045f919061206d565b610e96565b6040516104719190611b5e565b60405180910390f35b60007f80ac58cd000000000000000000000000000000000000000000000000000000007bffffffffffffffffffffffffffffffffffffffffffffffffffffffff1916827bffffffffffffffffffffffffffffffffffffffffffffffffffffffff1916148061054557507f5b5e139f000000000000000000000000000000000000000000000000000000007bffffffffffffffffffffffffffffffffffffffffffffffffffffffff1916827bffffffffffffffffffffffffffffffffffffffffffffffffffffffff1916145b80610555575061055482610f2a565b5b9050919050565b60606000805461056b906120dc565b80601f0160208091040260200160405190810160405280929190818152602001828054610597906120dc565b80156105e45780601f106105b9576101008083540402835291602001916105e4565b820191906000526020600020905b8154815290600101906020018083116105c757829003601f168201915b5050505050905090565b60006105f982610f94565b610638576040517f08c379a000000000000000000000000000000000000000000000000000000000815260040161062f90612180565b60405180910390fd5b6004600083815260200190815260200160002060009054906101000a900473ffffffffffffffffffffffffffffffffffffffff169050919050565b600061067e82610b4d565b90508073ffffffffffffffffffffffffffffffffffffffff168373ffffffffffffffffffffffffffffffffffffffff1614156106ef576040517f08c379a00000000000000000000000000000000000000000000000000000000081526004016106e690612212565b60405180910390fd5b8073ffffffffffffffffffffffffffffffffffffffff1661070e611000565b73ffffffffffffffffffffffffffffffffffffffff16148061073d575061073c81610737611000565b610e96565b5b61077c576040517f08c379a0000000000000000000000000000000000000000000000000000000008152600401610773906122a4565b60405180910390fd5b6107868383611008565b505050565b61079482610f94565b6107d3576040517f08c379a00000000000000000000000000000000000000000000000000000000081526004016107ca90612310565b60405180910390fd5b3373ffffffffffffffffffffffffffffffffffffffff166107f383610b4d565b73ffffffffffffffffffffffffffffffffffffffff1614610849576040517f08c379a00000000000000000000000000000000000000000000000000000000081526004016108409061237c565b60405180910390fd5b600060076000848152602001908152602001600020541461089f576040517f08c379a0000000000000000000000000000000000000000000000000000000008152600401610896906123e8565b60405180910390fd5b6601c6bf5263400034116108e8576040517f08c379a00000000000000000000000000000000000000000000000000000000081526004016108df90612454565b60405180910390fd5b6000811161092b576040517f08c379a0000000000000000000000000000000000000000000000000000000008152600401610922906124c0565b60405180910390fd5b8060076000848152602001908152602001600020819055505050565b60076020528060005260406000206000915090505481565b61097061096a611000565b826110c1565b6109af576040517f08c379a00000000000000000000000000000000000000000000000000000000081526004016109a690612552565b60405180910390fd5b6109ba83838361119f565b505050565b60076000828152602001908152602001600020543411610a14576040517f08c379a0000000000000000000000000000000000000000000000000000000008152600401610a0b90612454565b60405180910390fd5b610a1d81610f94565b610a5c576040517f08c379a0000000000000000000000000000000000000000000000000000000008152600401610a5390612310565b60405180910390fd5b600060076000838152602001908152602001600020541415610ab3576040517f08c379a0000000000000000000000000000000000000000000000000000000008152600401610aaa906125be565b60405180910390fd5b6000610abe82610b4d565b90506007600083815260200190815260200160002060009055610ae281338461119f565b8073ffffffffffffffffffffffffffffffffffffffff166108fc349081150290604051600060405180830381858888f19350505050158015610b28573d6000803e3d6000fd5b505050565b610b4883838360405180602001604052806000815250610d7f565b505050565b6000806002600084815260200190815260200160002060009054906101000a900473ffffffffffffffffffffffffffffffffffffffff169050600073ffffffffffffffffffffffffffffffffffffffff168173ffffffffffffffffffffffffffffffffffffffff161415610bf6576040517f08c379a0000000000000000000000000000000000000000000000000000000008152600401610bed90612650565b60405180910390fd5b80915050919050565b60008073ffffffffffffffffffffffffffffffffffffffff168273ffffffffffffffffffffffffffffffffffffffff161415610c70576040517f08c379a0000000000000000000000000000000000000000000000000000000008152600401610c67906126e2565b60405180910390fd5b600360008373ffffffffffffffffffffffffffffffffffffffff1673ffffffffffffffffffffffffffffffffffffffff168152602001908152602001600020549050919050565b606060018054610cc6906120dc565b80601f0160208091040260200160405190810160405280929190818152602001828054610cf2906120dc565b8015610d3f5780601f10610d1457610100808354040283529160200191610d3f565b820191906000526020600020905b815481529060010190602001808311610d2257829003601f168201915b5050505050905090565b610d5b610d54611000565b83836113fb565b5050565b600080600760008481526020019081526020016000205414159050919050565b610d90610d8a611000565b836110c1565b610dcf576040517f08c379a0000000000000000000000000000000000000000000000000000000008152600401610dc690612552565b60405180910390fd5b610ddb84848484611568565b50505050565b610deb82826115c4565b5050565b6060610dfa82610f94565b610e39576040517f08c379a0000000000000000000000000000000000000000000000000000000008152600401610e3090612774565b60405180910390fd5b6000610e43611792565b90506000815111610e635760405180602001604052806000815250610e8e565b80610e6d846117a9565b604051602001610e7e9291906127d0565b6040516020818303038152906040525b915050919050565b6000600560008473ffffffffffffffffffffffffffffffffffffffff1673ffffffffffffffffffffffffffffffffffffffff16815260200190815260200160002060008373ffffffffffffffffffffffffffffffffffffffff1673ffffffffffffffffffffffffffffffffffffffff16815260200190815260200160002060009054906101000a900460ff16905092915050565b60007f01ffc9a7000000000000000000000000000000000000000000000000000000007bffffffffffffffffffffffffffffffffffffffffffffffffffffffff1916827bffffffffffffffffffffffffffffffffffffffffffffffffffffffff1916149050919050565b60008073ffffffffffffffffffffffffffffffffffffffff166002600084815260200190815260200160002060009054906101000a900473ffffffffffffffffffffffffffffffffffffffff1673ffffffffffffffffffffffffffffffffffffffff1614159050919050565b600033905090565b816004600083815260200190815260200160002060006101000a81548173ffffffffffffffffffffffffffffffffffffffff021916908373ffffffffffffffffffffffffffffffffffffffff160217905550808273ffffffffffffffffffffffffffffffffffffffff1661107b83610b4d565b73ffffffffffffffffffffffffffffffffffffffff167f8c5be1e5ebec7d5bd14f71427d1e84f3dd0314c0f7b2291e5b200ac8c7c3b92560405160405180910390a45050565b60006110cc82610f94565b61110b576040517f08c379a000000000000000000000000000000000000000000000000000000000815260040161110290612866565b60405180910390fd5b600061111683610b4d565b90508073ffffffffffffffffffffffffffffffffffffffff168473ffffffffffffffffffffffffffffffffffffffff16148061118557508373ffffffffffffffffffffffffffffffffffffffff1661116d846105ee565b73ffffffffffffffffffffffffffffffffffffffff16145b8061119657506111958185610e96565b5b91505092915050565b8273ffffffffffffffffffffffffffffffffffffffff166111bf82610b4d565b73ffffffffffffffffffffffffffffffffffffffff1614611215576040517f08c379a000000000000000000000000000000000000000000000000000000000815260040161120c906128f8565b60405180910390fd5b600073ffffffffffffffffffffffffffffffffffffffff168273ffffffffffffffffffffffffffffffffffffffff161415611285576040517f08c379a000000000000000000000000000000000000000000000000000000000815260040161127c9061298a565b60405180910390fd5b61129083838361190a565b61129b600082611008565b6001600360008573ffffffffffffffffffffffffffffffffffffffff1673ffffffffffffffffffffffffffffffffffffffff16815260200190815260200160002060008282546112eb91906129d9565b925050819055506001600360008473ffffffffffffffffffffffffffffffffffffffff1673ffffffffffffffffffffffffffffffffffffffff16815260200190815260200160002060008282546113429190612a0d565b92505081905550816002600083815260200190815260200160002060006101000a81548173ffffffffffffffffffffffffffffffffffffffff021916908373ffffffffffffffffffffffffffffffffffffffff160217905550808273ffffffffffffffffffffffffffffffffffffffff168473ffffffffffffffffffffffffffffffffffffffff167fddf252ad1be2c89b69c2b068fc378daa952ba7f163c4a11628f55a4df523b3ef60405160405180910390a4505050565b8173ffffffffffffffffffffffffffffffffffffffff168373ffffffffffffffffffffffffffffffffffffffff16141561146a576040517f08c379a000000000000000000000000000000000000000000000000000000000815260040161146190612aaf565b60405180910390fd5b80600560008573ffffffffffffffffffffffffffffffffffffffff1673ffffffffffffffffffffffffffffffffffffffff16815260200190815260200160002060008473ffffffffffffffffffffffffffffffffffffffff1673ffffffffffffffffffffffffffffffffffffffff16815260200190815260200160002060006101000a81548160ff0219169083151502179055508173ffffffffffffffffffffffffffffffffffffffff168373ffffffffffffffffffffffffffffffffffffffff167f17307eab39ab6107e8899845ad3d59bd9653f200f220920489ca2b5937696c318360405161155b9190611b5e565b60405180910390a3505050565b61157384848461119f565b61157f8484848461190f565b6115be576040517f08c379a00000000000000000000000000000000000000000000000000000000081526004016115b590612b41565b60405180910390fd5b50505050565b600073ffffffffffffffffffffffffffffffffffffffff168273ffffffffffffffffffffffffffffffffffffffff161415611634576040517f08c379a000000000000000000000000000000000000000000000000000000000815260040161162b90612bad565b60405180910390fd5b61163d81610f94565b1561167d576040517f08c379a000000000000000000000000000000000000000000000000000000000815260040161167490612c19565b60405180910390fd5b6116896000838361190a565b6001600360008473ffffffffffffffffffffffffffffffffffffffff1673ffffffffffffffffffffffffffffffffffffffff16815260200190815260200160002060008282546116d99190612a0d565b92505081905550816002600083815260200190815260200160002060006101000a81548173ffffffffffffffffffffffffffffffffffffffff021916908373ffffffffffffffffffffffffffffffffffffffff160217905550808273ffffffffffffffffffffffffffffffffffffffff16600073ffffffffffffffffffffffffffffffffffffffff167fddf252ad1be2c89b69c2b068fc378daa952ba7f163c4a11628f55a4df523b3ef60405160405180910390a45050565b606060405180602001604052806000815250905090565b606060008214156117f1576040518060400160405280600181526020017f30000000000000000000000000000000000000000000000000000000000000008152509050611905565b600082905060005b6000821461182357808061180c90612c39565b915050600a8261181c9190612cb1565b91506117f9565b60008167ffffffffffffffff81111561183f5761183e611ebf565b5b6040519080825280601f01601f1916602001820160405280156118715781602001600182028036833780820191505090505b5090505b600085146118fe5760018261188a91906129d9565b9150600a856118999190612ce2565b60306118a59190612a0d565b60f81b8183815181106118bb576118ba612d13565b5b60200101907effffffffffffffffffffffffffffffffffffffffffffffffffffffffffffff1916908160001a905350600a856118f79190612cb1565b9450611875565b8093505050505b919050565b505050565b60006119308473ffffffffffffffffffffffffffffffffffffffff16611a97565b15611a8a578373ffffffffffffffffffffffffffffffffffffffff1663150b7a02611959611000565b8786866040518563ffffffff1660e01b815260040161197b9493929190612d97565b6020604051808303816000875af19250505080156119b757506040513d601f19601f820116820180604052508101906119b49190612df8565b60015b611a3a573d80600081146119e7576040519150601f19603f3d011682016040523d82523d6000602084013e6119ec565b606091505b50600081511415611a32576040517f08c379a0000000000000000000000000000000000000000000000000000000008152600401611a2990612b41565b60405180910390fd5b805181602001fd5b63150b7a0260e01b7bffffffffffffffffffffffffffffffffffffffffffffffffffffffff1916817bffffffffffffffffffffffffffffffffffffffffffffffffffffffff191614915050611a8f565b600190505b949350505050565b600080823b905060008111915050919050565b6000604051905090565b600080fd5b600080fd5b60007fffffffff0000000000000000000000000000000000000000000000000000000082169050919050565b611af381611abe565b8114611afe57600080fd5b50565b600081359050611b1081611aea565b92915050565b600060208284031215611b2c57611b2b611ab4565b5b6000611b3a84828501611b01565b91505092915050565b60008115159050919050565b611b5881611b43565b82525050565b6000602082019050611b736000830184611b4f565b92915050565b600081519050919050565b600082825260208201905092915050565b60005b83811015611bb3578082015181840152602081019050611b98565b83811115611bc2576000848401525b50505050565b6000601f19601f8301169050919050565b6000611be482611b79565b611bee8185611b84565b9350611bfe818560208601611b95565b611c0781611bc8565b840191505092915050565b60006020820190508181036000830152611c2c8184611bd9565b905092915050565b6000819050919050565b611c4781611c34565b8114611c5257600080fd5b50565b600081359050611c6481611c3e565b92915050565b600060208284031215611c8057611c7f611ab4565b5b6000611c8e84828501611c55565b91505092915050565b600073ffffffffffffffffffffffffffffffffffffffff82169050919050565b6000611cc282611c97565b9050919050565b611cd281611cb7565b82525050565b6000602082019050611ced6000830184611cc9565b92915050565b611cfc81611cb7565b8114611d0757600080fd5b50565b600081359050611d1981611cf3565b92915050565b60008060408385031215611d3657611d35611ab4565b5b6000611d4485828601611d0a565b9250506020611d5585828601611c55565b9150509250929050565b60008060408385031215611d7657611d75611ab4565b5b6000611d8485828601611c55565b9250506020611d9585828601611c55565b9150509250929050565b611da881611c34565b82525050565b6000602082019050611dc36000830184611d9f565b92915050565b600080600060608486031215611de257611de1611ab4565b5b6000611df086828701611d0a565b9350506020611e0186828701611d0a565b9250506040611e1286828701611c55565b9150509250925092565b600060208284031215611e3257611e31611ab4565b5b6000611e4084828501611d0a565b91505092915050565b611e5281611b43565b8114611e5d57600080fd5b50565b600081359050611e6f81611e49565b92915050565b60008060408385031215611e8c57611e8b611ab4565b5b6000611e9a85828601611d0a565b9250506020611eab85828601611e60565b9150509250929050565b600080fd5b600080fd5b7f4e487b7100000000000000000000000000000000000000000000000000000000600052604160045260246000fd5b611ef782611bc8565b810181811067ffffffffffffffff82111715611f1657611f15611ebf565b5b80604052505050565b6000611f29611aaa565b9050611f358282611eee565b919050565b600067ffffffffffffffff821115611f5557611f54611ebf565b5b611f5e82611bc8565b9050602081019050919050565b82818337600083830152505050565b6000611f8d611f8884611f3a565b611f1f565b905082815260208101848484011115611fa957611fa8611eba565b5b611fb4848285611f6b565b509392505050565b600082601f830112611fd157611fd0611eb5565b5b8135611fe1848260208601611f7a565b91505092915050565b6000806000806080858703121561200457612003611ab4565b5b600061201287828801611d0a565b945050602061202387828801611d0a565b935050604061203487828801611c55565b925050606085013567ffffffffffffffff81111561205557612054611ab9565b5b61206187828801611fbc565b91505092959194509250565b6000806040838503121561208457612083611ab4565b5b600061209285828601611d0a565b92505060206120a385828601611d0a565b9150509250929050565b7f4e487b7100000000000000000000000000000000000000000000000000000000600052602260045260246000fd5b600060028204905060018216806120f457607f821691505b60208210811415612108576121076120ad565b5b50919050565b7f4552433732313a20617070726f76656420717565727920666f72206e6f6e657860008201527f697374656e7420746f6b656e0000000000000000000000000000000000000000602082015250565b600061216a602c83611b84565b91506121758261210e565b604082019050919050565b600060208201905081810360008301526121998161215d565b9050919050565b7f4552433732313a20617070726f76616c20746f2063757272656e74206f776e6560008201527f7200000000000000000000000000000000000000000000000000000000000000602082015250565b60006121fc602183611b84565b9150612207826121a0565b604082019050919050565b6000602082019050818103600083015261222b816121ef565b9050919050565b7f4552433732313a20617070726f76652063616c6c6572206973206e6f74206f7760008201527f6e6572206e6f7220617070726f76656420666f7220616c6c0000000000000000602082015250565b600061228e603883611b84565b915061229982612232565b604082019050919050565b600060208201905081810360008301526122bd81612281565b9050919050565b7f4e6f742065786973747300000000000000000000000000000000000000000000600082015250565b60006122fa600a83611b84565b9150612305826122c4565b602082019050919050565b60006020820190508181036000830152612329816122ed565b9050919050565b7f4e6f74206f776e65720000000000000000000000000000000000000000000000600082015250565b6000612366600983611b84565b915061237182612330565b602082019050919050565b6000602082019050818103600083015261239581612359565b9050919050565b7f4f6e206f66666572000000000000000000000000000000000000000000000000600082015250565b60006123d2600883611b84565b91506123dd8261239c565b602082019050919050565b60006020820190508181036000830152612401816123c5565b9050919050565b7f4c6f772076616c75650000000000000000000000000000000000000000000000600082015250565b600061243e600983611b84565b915061244982612408565b602082019050919050565b6000602082019050818103600083015261246d81612431565b9050919050565b7f4c6f772070726963650000000000000000000000000000000000000000000000600082015250565b60006124aa600983611b84565b91506124b582612474565b602082019050919050565b600060208201905081810360008301526124d98161249d565b9050919050565b7f4552433732313a207472616e736665722063616c6c6572206973206e6f74206f60008201527f776e6572206e6f7220617070726f766564000000000000000000000000000000602082015250565b600061253c603183611b84565b9150612547826124e0565b604082019050919050565b6000602082019050818103600083015261256b8161252f565b9050919050565b7f4e6f74206f6e206f666665720000000000000000000000000000000000000000600082015250565b60006125a8600c83611b84565b91506125b382612572565b602082019050919050565b600060208201905081810360008301526125d78161259b565b9050919050565b7f4552433732313a206f776e657220717565727920666f72206e6f6e657869737460008201527f656e7420746f6b656e0000000000000000000000000000000000000000000000602082015250565b600061263a602983611b84565b9150612645826125de565b604082019050919050565b600060208201905081810360008301526126698161262d565b9050919050565b7f4552433732313a2062616c616e636520717565727920666f7220746865207a6560008201527f726f206164647265737300000000000000000000000000000000000000000000602082015250565b60006126cc602a83611b84565b91506126d782612670565b604082019050919050565b600060208201905081810360008301526126fb816126bf565b9050919050565b7f4552433732314d657461646174613a2055524920717565727920666f72206e6f60008201527f6e6578697374656e7420746f6b656e0000000000000000000000000000000000602082015250565b600061275e602f83611b84565b915061276982612702565b604082019050919050565b6000602082019050818103600083015261278d81612751565b9050919050565b600081905092915050565b60006127aa82611b79565b6127b48185612794565b93506127c4818560208601611b95565b80840191505092915050565b60006127dc828561279f565b91506127e8828461279f565b91508190509392505050565b7f4552433732313a206f70657261746f7220717565727920666f72206e6f6e657860008201527f697374656e7420746f6b656e0000000000000000000000000000000000000000602082015250565b6000612850602c83611b84565b915061285b826127f4565b604082019050919050565b6000602082019050818103600083015261287f81612843565b9050919050565b7f4552433732313a207472616e73666572206f6620746f6b656e2074686174206960008201527f73206e6f74206f776e0000000000000000000000000000000000000000000000602082015250565b60006128e2602983611b84565b91506128ed82612886565b604082019050919050565b60006020820190508181036000830152612911816128d5565b9050919050565b7f4552433732313a207472616e7366657220746f20746865207a65726f2061646460008201527f7265737300000000000000000000000000000000000000000000000000000000602082015250565b6000612974602483611b84565b915061297f82612918565b604082019050919050565b600060208201905081810360008301526129a381612967565b9050919050565b7f4e487b7100000000000000000000000000000000000000000000000000000000600052601160045260246000fd5b60006129e482611c34565b91506129ef83611c34565b925082821015612a0257612a016129aa565b5b828203905092915050565b6000612a1882611c34565b9150612a2383611c34565b9250827fffffffffffffffffffffffffffffffffffffffffffffffffffffffffffffffff03821115612a5857612a576129aa565b5b828201905092915050565b7f4552433732313a20617070726f766520746f2063616c6c657200000000000000600082015250565b6000612a99601983611b84565b9150612aa482612a63565b602082019050919050565b60006020820190508181036000830152612ac881612a8c565b9050919050565b7f4552433732313a207472616e7366657220746f206e6f6e20455243373231526560008201527f63656976657220696d706c656d656e7465720000000000000000000000000000602082015250565b6000612b2b603283611b84565b9150612b3682612acf565b604082019050919050565b60006020820190508181036000830152612b5a81612b1e565b9050919050565b7f4552433732313a206d696e7420746f20746865207a65726f2061646472657373600082015250565b6000612b97602083611b84565b9150612ba282612b61565b602082019050919050565b60006020820190508181036000830152612bc681612b8a565b9050919050565b7f4552433732313a20746f6b656e20616c7265616479206d696e74656400000000600082015250565b6000612c03601c83611b84565b9150612c0e82612bcd565b602082019050919050565b60006020820190508181036000830152612c3281612bf6565b9050919050565b6000612c4482611c34565b91507fffffffffffffffffffffffffffffffffffffffffffffffffffffffffffffffff821415612c7757612c766129aa565b5b600182019050919050565b7f4e487b7100000000000000000000000000000000000000000000000000000000600052601260045260246000fd5b6000612cbc82611c34565b9150612cc783611c34565b925082612cd757612cd6612c82565b5b828204905092915050565b6000612ced82611c34565b9150612cf883611c34565b925082612d0857612d07612c82565b5b828206905092915050565b7f4e487b7100000000000000000000000000000000000000000000000000000000600052603260045260246000fd5b600081519050919050565b600082825260208201905092915050565b6000612d6982612d42565b612d738185612d4d565b9350612d83818560208601611b95565b612d8c81611bc8565b840191505092915050565b6000608082019050612dac6000830187611cc9565b612db96020830186611cc9565b612dc66040830185611d9f565b8181036060830152612dd88184612d5e565b905095945050505050565b600081519050612df281611aea565b92915050565b600060208284031215612e0e57612e0d611ab4565b5b6000612e1c84828501612de3565b9150509291505056fea264697066735822122029aa01aec7569532d4dcf8e05f11ade506e4e29fcd06803d76807d204706995564736f6c634300080b0033",
  "immutableReferences": {},
  "source": "pragma solidity >=0.4.22 <0.9.0;\n\nimport \"../node_modules/@openzeppelin/contracts/token/ERC721/ERC721.sol\";\n\ncontract CustomERC721 is ERC721 {\n    \n    address _owner;\n\n    mapping (uint256 => uint256) public _offeredForSale;\n\n    constructor() ERC721(\"MyCustomNft\", \"MCN\") {\n        _owner = msg.sender;\n    }\n\n    function mintProtect(address to, uint256 tokenId) public {\n        _mint(to,tokenId);\n    }\n\n    function sellToken(uint256 tokenId, uint256 price) public payable{\n        require(_exists(tokenId), \"Not exists\");\n        require(ownerOf(tokenId) == msg.sender, \"Not owner\");\n        require(_offeredForSale[tokenId] == 0, \"On offer\");\n        require(msg.value > 0.0005 ether, \"Low value\");\n        require(price > 0, \"Low price\");\n\n        _offeredForSale[tokenId] = price;\n    }\n\n    function buyToken(uint256 tokenId) public payable{\n        require(msg.value > _offeredForSale[tokenId], \"Low value\");\n        require(_exists(tokenId), \"Not exists\");\n        require(_offeredForSale[tokenId] != 0, \"Not on offer\");\n\n        address seller = ownerOf(tokenId);\n\n        delete _offeredForSale[tokenId];\n\n        _transfer(seller, msg.sender, tokenId);\n        payable(seller).transfer(msg.value);\n    }\n\n    function onSale(uint256 tokenId) public view returns (bool) {\n        return _offeredForSale[tokenId] != 0;\n    }\n}",
  "sourcePath": "/root/ERC721/contracts/CustomERC721.sol",
  "compiler": {
    "name": "solc",
    "version": "0.8.11+commit.d7f03943.Emscripten.clang"
  },
  "schemaVersion": "3.4.4",
  "updatedAt": "2022-01-14T11:11:49.377Z",
  "networkType": "ethereum",
  "devdoc": {
    "kind": "dev",
    "methods": {
      "approve(address,uint256)": {
        "details": "See {IERC721-approve}."
      },
      "balanceOf(address)": {
        "details": "See {IERC721-balanceOf}."
      },
      "getApproved(uint256)": {
        "details": "See {IERC721-getApproved}."
      },
      "isApprovedForAll(address,address)": {
        "details": "See {IERC721-isApprovedForAll}."
      },
      "name()": {
        "details": "See {IERC721Metadata-name}."
      },
      "ownerOf(uint256)": {
        "details": "See {IERC721-ownerOf}."
      },
      "safeTransferFrom(address,address,uint256)": {
        "details": "See {IERC721-safeTransferFrom}."
      },
      "safeTransferFrom(address,address,uint256,bytes)": {
        "details": "See {IERC721-safeTransferFrom}."
      },
      "setApprovalForAll(address,bool)": {
        "details": "See {IERC721-setApprovalForAll}."
      },
      "supportsInterface(bytes4)": {
        "details": "See {IERC165-supportsInterface}."
      },
      "symbol()": {
        "details": "See {IERC721Metadata-symbol}."
      },
      "tokenURI(uint256)": {
        "details": "See {IERC721Metadata-tokenURI}."
      },
      "transferFrom(address,address,uint256)": {
        "details": "See {IERC721-transferFrom}."
      }
    },
    "version": 1
  },
  "userdoc": {
    "kind": "user",
    "methods": {},
    "version": 1
  }
}