{
  "contractName": "TestToken",
  "abi": [
    {
      "inputs": [],
      "stateMutability": "nonpayable",
      "type": "constructor"
    },
    {
      "anonymous": false,
      "inputs": [
        {
          "indexed": true,
          "internalType": "address",
          "name": "owner",
          "type": "address"
        },
        {
          "indexed": true,
          "internalType": "address",
          "name": "approved",
          "type": "address"
        },
        {
          "indexed": true,
          "internalType": "uint256",
          "name": "tokenId",
          "type": "uint256"
        }
      ],
      "name": "Approval",
      "type": "event"
    },
    {
      "anonymous": false,
      "inputs": [
        {
          "indexed": true,
          "internalType": "address",
          "name": "owner",
          "type": "address"
        },
        {
          "indexed": true,
          "internalType": "address",
          "name": "operator",
          "type": "address"
        },
        {
          "indexed": false,
          "internalType": "bool",
          "name": "approved",
          "type": "bool"
        }
      ],
      "name": "ApprovalForAll",
      "type": "event"
    },
    {
      "anonymous": false,
      "inputs": [
        {
          "indexed": true,
          "internalType": "address",
          "name": "from",
          "type": "address"
        },
        {
          "indexed": true,
          "internalType": "address",
          "name": "to",
          "type": "address"
        },
        {
          "indexed": true,
          "internalType": "uint256",
          "name": "tokenId",
          "type": "uint256"
        }
      ],
      "name": "Transfer",
      "type": "event"
    },
    {
      "inputs": [
        {
          "internalType": "uint256",
          "name": "",
          "type": "uint256"
        }
      ],
      "name": "_offeredForSale",
      "outputs": [
        {
          "internalType": "uint256",
          "name": "",
          "type": "uint256"
        }
      ],
      "stateMutability": "view",
      "type": "function"
    },
    {
      "inputs": [
        {
          "internalType": "address",
          "name": "to",
          "type": "address"
        },
        {
          "internalType": "uint256",
          "name": "tokenId",
          "type": "uint256"
        }
      ],
      "name": "approve",
      "outputs": [],
      "stateMutability": "nonpayable",
      "type": "function"
    },
    {
      "inputs": [
        {
          "internalType": "address",
          "name": "owner",
          "type": "address"
        }
      ],
      "name": "balanceOf",
      "outputs": [
        {
          "internalType": "uint256",
          "name": "",
          "type": "uint256"
        }
      ],
      "stateMutability": "view",
      "type": "function"
    },
    {
      "inputs": [
        {
          "internalType": "uint256",
          "name": "tokenId",
          "type": "uint256"
        }
      ],
      "name": "getApproved",
      "outputs": [
        {
          "internalType": "address",
          "name": "",
          "type": "address"
        }
      ],
      "stateMutability": "view",
      "type": "function"
    },
    {
      "inputs": [
        {
          "internalType": "address",
          "name": "owner",
          "type": "address"
        },
        {
          "internalType": "address",
          "name": "operator",
          "type": "address"
        }
      ],
      "name": "isApprovedForAll",
      "outputs": [
        {
          "internalType": "bool",
          "name": "",
          "type": "bool"
        }
      ],
      "stateMutability": "view",
      "type": "function"
    },
    {
      "inputs": [],
      "name": "name",
      "outputs": [
        {
          "internalType": "string",
          "name": "",
          "type": "string"
        }
      ],
      "stateMutability": "view",
      "type": "function"
    },
    {
      "inputs": [
        {
          "internalType": "uint256",
          "name": "tokenId",
          "type": "uint256"
        }
      ],
      "name": "ownerOf",
      "outputs": [
        {
          "internalType": "address",
          "name": "",
          "type": "address"
        }
      ],
      "stateMutability": "view",
      "type": "function"
    },
    {
      "inputs": [
        {
          "internalType": "address",
          "name": "from",
          "type": "address"
        },
        {
          "internalType": "address",
          "name": "to",
          "type": "address"
        },
        {
          "internalType": "uint256",
          "name": "tokenId",
          "type": "uint256"
        }
      ],
      "name": "safeTransferFrom",
      "outputs": [],
      "stateMutability": "nonpayable",
      "type": "function"
    },
    {
      "inputs": [
        {
          "internalType": "address",
          "name": "from",
          "type": "address"
        },
        {
          "internalType": "address",
          "name": "to",
          "type": "address"
        },
        {
          "internalType": "uint256",
          "name": "tokenId",
          "type": "uint256"
        },
        {
          "internalType": "bytes",
          "name": "_data",
          "type": "bytes"
        }
      ],
      "name": "safeTransferFrom",
      "outputs": [],
      "stateMutability": "nonpayable",
      "type": "function"
    },
    {
      "inputs": [
        {
          "internalType": "address",
          "name": "operator",
          "type": "address"
        },
        {
          "internalType": "bool",
          "name": "approved",
          "type": "bool"
        }
      ],
      "name": "setApprovalForAll",
      "outputs": [],
      "stateMutability": "nonpayable",
      "type": "function"
    },
    {
      "inputs": [
        {
          "internalType": "bytes4",
          "name": "interfaceId",
          "type": "bytes4"
        }
      ],
      "name": "supportsInterface",
      "outputs": [
        {
          "internalType": "bool",
          "name": "",
          "type": "bool"
        }
      ],
      "stateMutability": "view",
      "type": "function"
    },
    {
      "inputs": [],
      "name": "symbol",
      "outputs": [
        {
          "internalType": "string",
          "name": "",
          "type": "string"
        }
      ],
      "stateMutability": "view",
      "type": "function"
    },
    {
      "inputs": [
        {
          "internalType": "uint256",
          "name": "tokenId",
          "type": "uint256"
        }
      ],
      "name": "tokenURI",
      "outputs": [
        {
          "internalType": "string",
          "name": "",
          "type": "string"
        }
      ],
      "stateMutability": "view",
      "type": "function"
    },
    {
      "inputs": [
        {
          "internalType": "address",
          "name": "from",
          "type": "address"
        },
        {
          "internalType": "address",
          "name": "to",
          "type": "address"
        },
        {
          "internalType": "uint256",
          "name": "tokenId",
          "type": "uint256"
        }
      ],
      "name": "transferFrom",
      "outputs": [],
      "stateMutability": "nonpayable",
      "type": "function"
    },
    {
      "inputs": [
        {
          "internalType": "address",
          "name": "to",
          "type": "address"
        },
        {
          "internalType": "uint256",
          "name": "tokenId",
          "type": "uint256"
        }
      ],
      "name": "mintProtect",
      "outputs": [],
      "stateMutability": "nonpayable",
      "type": "function"
    },
    {
      "inputs": [
        {
          "internalType": "uint256",
          "name": "tokenId",
          "type": "uint256"
        },
        {
          "internalType": "uint256",
          "name": "price",
          "type": "uint256"
        }
      ],
      "name": "sellToken",
      "outputs": [],
      "stateMutability": "nonpayable",
      "type": "function"
    },
    {
      "inputs": [
        {
          "internalType": "uint256",
          "name": "tokenId",
          "type": "uint256"
        }
      ],
      "name": "buyToken",
      "outputs": [],
      "stateMutability": "payable",
      "type": "function"
    },
    {
      "inputs": [
        {
          "internalType": "uint256",
          "name": "tokenId",
          "type": "uint256"
        }
      ],
      "name": "onSale",
      "outputs": [
        {
          "internalType": "bool",
          "name": "",
          "type": "bool"
        }
      ],
      "stateMutability": "view",
      "type": "function"
    }
  ],
  "bytecode": "0x60806040523480156200001157600080fd5b506040518060400160405280600a81526020017f5465737420546f6b656e000000000000000000000000000000000000000000008152506040518060400160405280600381526020017f5453540000000000000000000000000000000000000000000000000000000000815250816000908051906020019062000096929190620000f9565b508060019080519060200190620000af929190620000f9565b50505033600660006101000a81548173ffffffffffffffffffffffffffffffffffffffff021916908373ffffffffffffffffffffffffffffffffffffffff1602179055506200020e565b8280546200010790620001d8565b90600052602060002090601f0160209004810192826200012b576000855562000177565b82601f106200014657805160ff191683800117855562000177565b8280016001018555821562000177579182015b828111156200017657825182559160200191906001019062000159565b5b5090506200018691906200018a565b5090565b5b80821115620001a55760008160009055506001016200018b565b5090565b7f4e487b7100000000000000000000000000000000000000000000000000000000600052602260045260246000fd5b60006002820490506001821680620001f157607f821691505b60208210811415620002085762000207620001a9565b5b50919050565b612eaf806200021e6000396000f3fe6080604052600436106101095760003560e01c80636352211e11610095578063b43a76f111610064578063b43a76f11461037e578063b88d4fde146103bb578063bf8c566e146103e4578063c87b56dd1461040d578063e985e9c51461044a57610109565b80636352211e146102b057806370a08231146102ed57806395d89b411461032a578063a22cb4651461035557610109565b80631897bcf3116100dc5780631897bcf3146101dc5780631b5412051461020557806323b872dd146102425780632d296bf11461026b57806342842e0e1461028757610109565b806301ffc9a71461010e57806306fdde031461014b578063081812fc14610176578063095ea7b3146101b3575b600080fd5b34801561011a57600080fd5b5061013560048036038101906101309190611b6a565b610487565b6040516101429190611bb2565b60405180910390f35b34801561015757600080fd5b50610160610569565b60405161016d9190611c66565b60405180910390f35b34801561018257600080fd5b5061019d60048036038101906101989190611cbe565b6105fb565b6040516101aa9190611d2c565b60405180910390f35b3480156101bf57600080fd5b506101da60048036038101906101d59190611d73565b610680565b005b3480156101e857600080fd5b5061020360048036038101906101fe9190611db3565b610798565b005b34801561021157600080fd5b5061022c60048036038101906102279190611cbe565b61090b565b6040516102399190611e02565b60405180910390f35b34801561024e57600080fd5b5061026960048036038101906102649190611e1d565b610923565b005b61028560048036038101906102809190611cbe565b610983565b005b34801561029357600080fd5b506102ae60048036038101906102a99190611e1d565b610af1565b005b3480156102bc57600080fd5b506102d760048036038101906102d29190611cbe565b610b11565b6040516102e49190611d2c565b60405180910390f35b3480156102f957600080fd5b50610314600480360381019061030f9190611e70565b610bc3565b6040516103219190611e02565b60405180910390f35b34801561033657600080fd5b5061033f610c7b565b60405161034c9190611c66565b60405180910390f35b34801561036157600080fd5b5061037c60048036038101906103779190611ec9565b610d0d565b005b34801561038a57600080fd5b506103a560048036038101906103a09190611cbe565b610d23565b6040516103b29190611bb2565b60405180910390f35b3480156103c757600080fd5b506103e260048036038101906103dd919061203e565b610d43565b005b3480156103f057600080fd5b5061040b60048036038101906104069190611d73565b610da5565b005b34801561041957600080fd5b50610434600480360381019061042f9190611cbe565b610e43565b6040516104419190611c66565b60405180910390f35b34801561045657600080fd5b50610471600480360381019061046c91906120c1565b610eea565b60405161047e9190611bb2565b60405180910390f35b60007f80ac58cd000000000000000000000000000000000000000000000000000000007bffffffffffffffffffffffffffffffffffffffffffffffffffffffff1916827bffffffffffffffffffffffffffffffffffffffffffffffffffffffff1916148061055257507f5b5e139f000000000000000000000000000000000000000000000000000000007bffffffffffffffffffffffffffffffffffffffffffffffffffffffff1916827bffffffffffffffffffffffffffffffffffffffffffffffffffffffff1916145b80610562575061056182610f7e565b5b9050919050565b60606000805461057890612130565b80601f01602080910402602001604051908101604052809291908181526020018280546105a490612130565b80156105f15780601f106105c6576101008083540402835291602001916105f1565b820191906000526020600020905b8154815290600101906020018083116105d457829003601f168201915b5050505050905090565b600061060682610fe8565b610645576040517f08c379a000000000000000000000000000000000000000000000000000000000815260040161063c906121d4565b60405180910390fd5b6004600083815260200190815260200160002060009054906101000a900473ffffffffffffffffffffffffffffffffffffffff169050919050565b600061068b82610b11565b90508073ffffffffffffffffffffffffffffffffffffffff168373ffffffffffffffffffffffffffffffffffffffff1614156106fc576040517f08c379a00000000000000000000000000000000000000000000000000000000081526004016106f390612266565b60405180910390fd5b8073ffffffffffffffffffffffffffffffffffffffff1661071b611054565b73ffffffffffffffffffffffffffffffffffffffff16148061074a575061074981610744611054565b610eea565b5b610789576040517f08c379a0000000000000000000000000000000000000000000000000000000008152600401610780906122f8565b60405180910390fd5b610793838361105c565b505050565b6107a182610fe8565b6107e0576040517f08c379a00000000000000000000000000000000000000000000000000000000081526004016107d790612364565b60405180910390fd5b3373ffffffffffffffffffffffffffffffffffffffff1661080083610b11565b73ffffffffffffffffffffffffffffffffffffffff1614610856576040517f08c379a000000000000000000000000000000000000000000000000000000000815260040161084d906123d0565b60405180910390fd5b60006007600084815260200190815260200160002054146108ac576040517f08c379a00000000000000000000000000000000000000000000000000000000081526004016108a39061243c565b60405180910390fd5b600081116108ef576040517f08c379a00000000000000000000000000000000000000000000000000000000081526004016108e6906124a8565b60405180910390fd5b8060076000848152602001908152602001600020819055505050565b60076020528060005260406000206000915090505481565b61093461092e611054565b82611115565b610973576040517f08c379a000000000000000000000000000000000000000000000000000000000815260040161096a9061253a565b60405180910390fd5b61097e8383836111f3565b505050565b600760008281526020019081526020016000205434116109d8576040517f08c379a00000000000000000000000000000000000000000000000000000000081526004016109cf906125a6565b60405180910390fd5b6109e181610fe8565b610a20576040517f08c379a0000000000000000000000000000000000000000000000000000000008152600401610a1790612364565b60405180910390fd5b600060076000838152602001908152602001600020541415610a77576040517f08c379a0000000000000000000000000000000000000000000000000000000008152600401610a6e90612612565b60405180910390fd5b6000610a8282610b11565b90506007600083815260200190815260200160002060009055610aa68133846111f3565b8073ffffffffffffffffffffffffffffffffffffffff166108fc349081150290604051600060405180830381858888f19350505050158015610aec573d6000803e3d6000fd5b505050565b610b0c83838360405180602001604052806000815250610d43565b505050565b6000806002600084815260200190815260200160002060009054906101000a900473ffffffffffffffffffffffffffffffffffffffff169050600073ffffffffffffffffffffffffffffffffffffffff168173ffffffffffffffffffffffffffffffffffffffff161415610bba576040517f08c379a0000000000000000000000000000000000000000000000000000000008152600401610bb1906126a4565b60405180910390fd5b80915050919050565b60008073ffffffffffffffffffffffffffffffffffffffff168273ffffffffffffffffffffffffffffffffffffffff161415610c34576040517f08c379a0000000000000000000000000000000000000000000000000000000008152600401610c2b90612736565b60405180910390fd5b600360008373ffffffffffffffffffffffffffffffffffffffff1673ffffffffffffffffffffffffffffffffffffffff168152602001908152602001600020549050919050565b606060018054610c8a90612130565b80601f0160208091040260200160405190810160405280929190818152602001828054610cb690612130565b8015610d035780601f10610cd857610100808354040283529160200191610d03565b820191906000526020600020905b815481529060010190602001808311610ce657829003601f168201915b5050505050905090565b610d1f610d18611054565b838361144f565b5050565b600080600760008481526020019081526020016000205414159050919050565b610d54610d4e611054565b83611115565b610d93576040517f08c379a0000000000000000000000000000000000000000000000000000000008152600401610d8a9061253a565b60405180910390fd5b610d9f848484846115bc565b50505050565b3373ffffffffffffffffffffffffffffffffffffffff16600660009054906101000a900473ffffffffffffffffffffffffffffffffffffffff1673ffffffffffffffffffffffffffffffffffffffff1614610e35576040517f08c379a0000000000000000000000000000000000000000000000000000000008152600401610e2c906123d0565b60405180910390fd5b610e3f8282611618565b5050565b6060610e4e82610fe8565b610e8d576040517f08c379a0000000000000000000000000000000000000000000000000000000008152600401610e84906127c8565b60405180910390fd5b6000610e976117e6565b90506000815111610eb75760405180602001604052806000815250610ee2565b80610ec1846117fd565b604051602001610ed2929190612824565b6040516020818303038152906040525b915050919050565b6000600560008473ffffffffffffffffffffffffffffffffffffffff1673ffffffffffffffffffffffffffffffffffffffff16815260200190815260200160002060008373ffffffffffffffffffffffffffffffffffffffff1673ffffffffffffffffffffffffffffffffffffffff16815260200190815260200160002060009054906101000a900460ff16905092915050565b60007f01ffc9a7000000000000000000000000000000000000000000000000000000007bffffffffffffffffffffffffffffffffffffffffffffffffffffffff1916827bffffffffffffffffffffffffffffffffffffffffffffffffffffffff1916149050919050565b60008073ffffffffffffffffffffffffffffffffffffffff166002600084815260200190815260200160002060009054906101000a900473ffffffffffffffffffffffffffffffffffffffff1673ffffffffffffffffffffffffffffffffffffffff1614159050919050565b600033905090565b816004600083815260200190815260200160002060006101000a81548173ffffffffffffffffffffffffffffffffffffffff021916908373ffffffffffffffffffffffffffffffffffffffff160217905550808273ffffffffffffffffffffffffffffffffffffffff166110cf83610b11565b73ffffffffffffffffffffffffffffffffffffffff167f8c5be1e5ebec7d5bd14f71427d1e84f3dd0314c0f7b2291e5b200ac8c7c3b92560405160405180910390a45050565b600061112082610fe8565b61115f576040517f08c379a0000000000000000000000000000000000000000000000000000000008152600401611156906128ba565b60405180910390fd5b600061116a83610b11565b90508073ffffffffffffffffffffffffffffffffffffffff168473ffffffffffffffffffffffffffffffffffffffff1614806111d957508373ffffffffffffffffffffffffffffffffffffffff166111c1846105fb565b73ffffffffffffffffffffffffffffffffffffffff16145b806111ea57506111e98185610eea565b5b91505092915050565b8273ffffffffffffffffffffffffffffffffffffffff1661121382610b11565b73ffffffffffffffffffffffffffffffffffffffff1614611269576040517f08c379a00000000000000000000000000000000000000000000000000000000081526004016112609061294c565b60405180910390fd5b600073ffffffffffffffffffffffffffffffffffffffff168273ffffffffffffffffffffffffffffffffffffffff1614156112d9576040517f08c379a00000000000000000000000000000000000000000000000000000000081526004016112d0906129de565b60405180910390fd5b6112e483838361195e565b6112ef60008261105c565b6001600360008573ffffffffffffffffffffffffffffffffffffffff1673ffffffffffffffffffffffffffffffffffffffff168152602001908152602001600020600082825461133f9190612a2d565b925050819055506001600360008473ffffffffffffffffffffffffffffffffffffffff1673ffffffffffffffffffffffffffffffffffffffff16815260200190815260200160002060008282546113969190612a61565b92505081905550816002600083815260200190815260200160002060006101000a81548173ffffffffffffffffffffffffffffffffffffffff021916908373ffffffffffffffffffffffffffffffffffffffff160217905550808273ffffffffffffffffffffffffffffffffffffffff168473ffffffffffffffffffffffffffffffffffffffff167fddf252ad1be2c89b69c2b068fc378daa952ba7f163c4a11628f55a4df523b3ef60405160405180910390a4505050565b8173ffffffffffffffffffffffffffffffffffffffff168373ffffffffffffffffffffffffffffffffffffffff1614156114be576040517f08c379a00000000000000000000000000000000000000000000000000000000081526004016114b590612b03565b60405180910390fd5b80600560008573ffffffffffffffffffffffffffffffffffffffff1673ffffffffffffffffffffffffffffffffffffffff16815260200190815260200160002060008473ffffffffffffffffffffffffffffffffffffffff1673ffffffffffffffffffffffffffffffffffffffff16815260200190815260200160002060006101000a81548160ff0219169083151502179055508173ffffffffffffffffffffffffffffffffffffffff168373ffffffffffffffffffffffffffffffffffffffff167f17307eab39ab6107e8899845ad3d59bd9653f200f220920489ca2b5937696c31836040516115af9190611bb2565b60405180910390a3505050565b6115c78484846111f3565b6115d384848484611963565b611612576040517f08c379a000000000000000000000000000000000000000000000000000000000815260040161160990612b95565b60405180910390fd5b50505050565b600073ffffffffffffffffffffffffffffffffffffffff168273ffffffffffffffffffffffffffffffffffffffff161415611688576040517f08c379a000000000000000000000000000000000000000000000000000000000815260040161167f90612c01565b60405180910390fd5b61169181610fe8565b156116d1576040517f08c379a00000000000000000000000000000000000000000000000000000000081526004016116c890612c6d565b60405180910390fd5b6116dd6000838361195e565b6001600360008473ffffffffffffffffffffffffffffffffffffffff1673ffffffffffffffffffffffffffffffffffffffff168152602001908152602001600020600082825461172d9190612a61565b92505081905550816002600083815260200190815260200160002060006101000a81548173ffffffffffffffffffffffffffffffffffffffff021916908373ffffffffffffffffffffffffffffffffffffffff160217905550808273ffffffffffffffffffffffffffffffffffffffff16600073ffffffffffffffffffffffffffffffffffffffff167fddf252ad1be2c89b69c2b068fc378daa952ba7f163c4a11628f55a4df523b3ef60405160405180910390a45050565b606060405180602001604052806000815250905090565b60606000821415611845576040518060400160405280600181526020017f30000000000000000000000000000000000000000000000000000000000000008152509050611959565b600082905060005b6000821461187757808061186090612c8d565b915050600a826118709190612d05565b915061184d565b60008167ffffffffffffffff81111561189357611892611f13565b5b6040519080825280601f01601f1916602001820160405280156118c55781602001600182028036833780820191505090505b5090505b60008514611952576001826118de9190612a2d565b9150600a856118ed9190612d36565b60306118f99190612a61565b60f81b81838151811061190f5761190e612d67565b5b60200101907effffffffffffffffffffffffffffffffffffffffffffffffffffffffffffff1916908160001a905350600a8561194b9190612d05565b94506118c9565b8093505050505b919050565b505050565b60006119848473ffffffffffffffffffffffffffffffffffffffff16611aeb565b15611ade578373ffffffffffffffffffffffffffffffffffffffff1663150b7a026119ad611054565b8786866040518563ffffffff1660e01b81526004016119cf9493929190612deb565b6020604051808303816000875af1925050508015611a0b57506040513d601f19601f82011682018060405250810190611a089190612e4c565b60015b611a8e573d8060008114611a3b576040519150601f19603f3d011682016040523d82523d6000602084013e611a40565b606091505b50600081511415611a86576040517f08c379a0000000000000000000000000000000000000000000000000000000008152600401611a7d90612b95565b60405180910390fd5b805181602001fd5b63150b7a0260e01b7bffffffffffffffffffffffffffffffffffffffffffffffffffffffff1916817bffffffffffffffffffffffffffffffffffffffffffffffffffffffff191614915050611ae3565b600190505b949350505050565b600080823b905060008111915050919050565b6000604051905090565b600080fd5b600080fd5b60007fffffffff0000000000000000000000000000000000000000000000000000000082169050919050565b611b4781611b12565b8114611b5257600080fd5b50565b600081359050611b6481611b3e565b92915050565b600060208284031215611b8057611b7f611b08565b5b6000611b8e84828501611b55565b91505092915050565b60008115159050919050565b611bac81611b97565b82525050565b6000602082019050611bc76000830184611ba3565b92915050565b600081519050919050565b600082825260208201905092915050565b60005b83811015611c07578082015181840152602081019050611bec565b83811115611c16576000848401525b50505050565b6000601f19601f8301169050919050565b6000611c3882611bcd565b611c428185611bd8565b9350611c52818560208601611be9565b611c5b81611c1c565b840191505092915050565b60006020820190508181036000830152611c808184611c2d565b905092915050565b6000819050919050565b611c9b81611c88565b8114611ca657600080fd5b50565b600081359050611cb881611c92565b92915050565b600060208284031215611cd457611cd3611b08565b5b6000611ce284828501611ca9565b91505092915050565b600073ffffffffffffffffffffffffffffffffffffffff82169050919050565b6000611d1682611ceb565b9050919050565b611d2681611d0b565b82525050565b6000602082019050611d416000830184611d1d565b92915050565b611d5081611d0b565b8114611d5b57600080fd5b50565b600081359050611d6d81611d47565b92915050565b60008060408385031215611d8a57611d89611b08565b5b6000611d9885828601611d5e565b9250506020611da985828601611ca9565b9150509250929050565b60008060408385031215611dca57611dc9611b08565b5b6000611dd885828601611ca9565b9250506020611de985828601611ca9565b9150509250929050565b611dfc81611c88565b82525050565b6000602082019050611e176000830184611df3565b92915050565b600080600060608486031215611e3657611e35611b08565b5b6000611e4486828701611d5e565b9350506020611e5586828701611d5e565b9250506040611e6686828701611ca9565b9150509250925092565b600060208284031215611e8657611e85611b08565b5b6000611e9484828501611d5e565b91505092915050565b611ea681611b97565b8114611eb157600080fd5b50565b600081359050611ec381611e9d565b92915050565b60008060408385031215611ee057611edf611b08565b5b6000611eee85828601611d5e565b9250506020611eff85828601611eb4565b9150509250929050565b600080fd5b600080fd5b7f4e487b7100000000000000000000000000000000000000000000000000000000600052604160045260246000fd5b611f4b82611c1c565b810181811067ffffffffffffffff82111715611f6a57611f69611f13565b5b80604052505050565b6000611f7d611afe565b9050611f898282611f42565b919050565b600067ffffffffffffffff821115611fa957611fa8611f13565b5b611fb282611c1c565b9050602081019050919050565b82818337600083830152505050565b6000611fe1611fdc84611f8e565b611f73565b905082815260208101848484011115611ffd57611ffc611f0e565b5b612008848285611fbf565b509392505050565b600082601f83011261202557612024611f09565b5b8135612035848260208601611fce565b91505092915050565b6000806000806080858703121561205857612057611b08565b5b600061206687828801611d5e565b945050602061207787828801611d5e565b935050604061208887828801611ca9565b925050606085013567ffffffffffffffff8111156120a9576120a8611b0d565b5b6120b587828801612010565b91505092959194509250565b600080604083850312156120d8576120d7611b08565b5b60006120e685828601611d5e565b92505060206120f785828601611d5e565b9150509250929050565b7f4e487b7100000000000000000000000000000000000000000000000000000000600052602260045260246000fd5b6000600282049050600182168061214857607f821691505b6020821081141561215c5761215b612101565b5b50919050565b7f4552433732313a20617070726f76656420717565727920666f72206e6f6e657860008201527f697374656e7420746f6b656e0000000000000000000000000000000000000000602082015250565b60006121be602c83611bd8565b91506121c982612162565b604082019050919050565b600060208201905081810360008301526121ed816121b1565b9050919050565b7f4552433732313a20617070726f76616c20746f2063757272656e74206f776e6560008201527f7200000000000000000000000000000000000000000000000000000000000000602082015250565b6000612250602183611bd8565b915061225b826121f4565b604082019050919050565b6000602082019050818103600083015261227f81612243565b9050919050565b7f4552433732313a20617070726f76652063616c6c6572206973206e6f74206f7760008201527f6e6572206e6f7220617070726f76656420666f7220616c6c0000000000000000602082015250565b60006122e2603883611bd8565b91506122ed82612286565b604082019050919050565b60006020820190508181036000830152612311816122d5565b9050919050565b7f4e6f742065786973747300000000000000000000000000000000000000000000600082015250565b600061234e600a83611bd8565b915061235982612318565b602082019050919050565b6000602082019050818103600083015261237d81612341565b9050919050565b7f4e6f74206f776e65720000000000000000000000000000000000000000000000600082015250565b60006123ba600983611bd8565b91506123c582612384565b602082019050919050565b600060208201905081810360008301526123e9816123ad565b9050919050565b7f4f6e206f66666572000000000000000000000000000000000000000000000000600082015250565b6000612426600883611bd8565b9150612431826123f0565b602082019050919050565b6000602082019050818103600083015261245581612419565b9050919050565b7f4c6f772070726963650000000000000000000000000000000000000000000000600082015250565b6000612492600983611bd8565b915061249d8261245c565b602082019050919050565b600060208201905081810360008301526124c181612485565b9050919050565b7f4552433732313a207472616e736665722063616c6c6572206973206e6f74206f60008201527f776e6572206e6f7220617070726f766564000000000000000000000000000000602082015250565b6000612524603183611bd8565b915061252f826124c8565b604082019050919050565b6000602082019050818103600083015261255381612517565b9050919050565b7f4c6f772076616c75650000000000000000000000000000000000000000000000600082015250565b6000612590600983611bd8565b915061259b8261255a565b602082019050919050565b600060208201905081810360008301526125bf81612583565b9050919050565b7f4e6f74206f6e206f666665720000000000000000000000000000000000000000600082015250565b60006125fc600c83611bd8565b9150612607826125c6565b602082019050919050565b6000602082019050818103600083015261262b816125ef565b9050919050565b7f4552433732313a206f776e657220717565727920666f72206e6f6e657869737460008201527f656e7420746f6b656e0000000000000000000000000000000000000000000000602082015250565b600061268e602983611bd8565b915061269982612632565b604082019050919050565b600060208201905081810360008301526126bd81612681565b9050919050565b7f4552433732313a2062616c616e636520717565727920666f7220746865207a6560008201527f726f206164647265737300000000000000000000000000000000000000000000602082015250565b6000612720602a83611bd8565b915061272b826126c4565b604082019050919050565b6000602082019050818103600083015261274f81612713565b9050919050565b7f4552433732314d657461646174613a2055524920717565727920666f72206e6f60008201527f6e6578697374656e7420746f6b656e0000000000000000000000000000000000602082015250565b60006127b2602f83611bd8565b91506127bd82612756565b604082019050919050565b600060208201905081810360008301526127e1816127a5565b9050919050565b600081905092915050565b60006127fe82611bcd565b61280881856127e8565b9350612818818560208601611be9565b80840191505092915050565b600061283082856127f3565b915061283c82846127f3565b91508190509392505050565b7f4552433732313a206f70657261746f7220717565727920666f72206e6f6e657860008201527f697374656e7420746f6b656e0000000000000000000000000000000000000000602082015250565b60006128a4602c83611bd8565b91506128af82612848565b604082019050919050565b600060208201905081810360008301526128d381612897565b9050919050565b7f4552433732313a207472616e73666572206f6620746f6b656e2074686174206960008201527f73206e6f74206f776e0000000000000000000000000000000000000000000000602082015250565b6000612936602983611bd8565b9150612941826128da565b604082019050919050565b6000602082019050818103600083015261296581612929565b9050919050565b7f4552433732313a207472616e7366657220746f20746865207a65726f2061646460008201527f7265737300000000000000000000000000000000000000000000000000000000602082015250565b60006129c8602483611bd8565b91506129d38261296c565b604082019050919050565b600060208201905081810360008301526129f7816129bb565b9050919050565b7f4e487b7100000000000000000000000000000000000000000000000000000000600052601160045260246000fd5b6000612a3882611c88565b9150612a4383611c88565b925082821015612a5657612a556129fe565b5b828203905092915050565b6000612a6c82611c88565b9150612a7783611c88565b9250827fffffffffffffffffffffffffffffffffffffffffffffffffffffffffffffffff03821115612aac57612aab6129fe565b5b828201905092915050565b7f4552433732313a20617070726f766520746f2063616c6c657200000000000000600082015250565b6000612aed601983611bd8565b9150612af882612ab7565b602082019050919050565b60006020820190508181036000830152612b1c81612ae0565b9050919050565b7f4552433732313a207472616e7366657220746f206e6f6e20455243373231526560008201527f63656976657220696d706c656d656e7465720000000000000000000000000000602082015250565b6000612b7f603283611bd8565b9150612b8a82612b23565b604082019050919050565b60006020820190508181036000830152612bae81612b72565b9050919050565b7f4552433732313a206d696e7420746f20746865207a65726f2061646472657373600082015250565b6000612beb602083611bd8565b9150612bf682612bb5565b602082019050919050565b60006020820190508181036000830152612c1a81612bde565b9050919050565b7f4552433732313a20746f6b656e20616c7265616479206d696e74656400000000600082015250565b6000612c57601c83611bd8565b9150612c6282612c21565b602082019050919050565b60006020820190508181036000830152612c8681612c4a565b9050919050565b6000612c9882611c88565b91507fffffffffffffffffffffffffffffffffffffffffffffffffffffffffffffffff821415612ccb57612cca6129fe565b5b600182019050919050565b7f4e487b7100000000000000000000000000000000000000000000000000000000600052601260045260246000fd5b6000612d1082611c88565b9150612d1b83611c88565b925082612d2b57612d2a612cd6565b5b828204905092915050565b6000612d4182611c88565b9150612d4c83611c88565b925082612d5c57612d5b612cd6565b5b828206905092915050565b7f4e487b7100000000000000000000000000000000000000000000000000000000600052603260045260246000fd5b600081519050919050565b600082825260208201905092915050565b6000612dbd82612d96565b612dc78185612da1565b9350612dd7818560208601611be9565b612de081611c1c565b840191505092915050565b6000608082019050612e006000830187611d1d565b612e0d6020830186611d1d565b612e1a6040830185611df3565b8181036060830152612e2c8184612db2565b905095945050505050565b600081519050612e4681611b3e565b92915050565b600060208284031215612e6257612e61611b08565b5b6000612e7084828501612e37565b9150509291505056fea2646970667358221220e41a65b51edb59158e16cca386c942eec1cc6eb4f7a9491eaca75119782498fc64736f6c634300080b0033",
  "immutableReferences": {},
  "source": "pragma solidity >=0.4.22 <0.9.0;\n\nimport \"../node_modules/@openzeppelin/contracts/token/ERC721/ERC721.sol\";\n\ncontract TestToken is ERC721 {\n    \n    address _owner;\n\n    mapping (uint256 => uint256) public _offeredForSale;\n\n    constructor() ERC721(\"Test Token\", \"TST\") {\n        _owner = msg.sender;\n    }\n\n    function mintProtect(address to, uint256 tokenId) public {\n        require(_owner == msg.sender, \"Not owner\");\n        _mint(to,tokenId);\n    }\n\n    function sellToken(uint256 tokenId, uint256 price) public{\n        require(_exists(tokenId), \"Not exists\");\n        require(ownerOf(tokenId) == msg.sender, \"Not owner\");\n        require(_offeredForSale[tokenId] == 0, \"On offer\");\n        require(price > 0, \"Low price\");\n\n        _offeredForSale[tokenId] = price;\n    }\n\n    function buyToken(uint256 tokenId) public payable{\n        require(msg.value > _offeredForSale[tokenId], \"Low value\");\n        require(_exists(tokenId), \"Not exists\");\n        require(_offeredForSale[tokenId] != 0, \"Not on offer\");\n\n        address seller = ownerOf(tokenId);\n        delete _offeredForSale[tokenId];\n        _transfer(seller, msg.sender, tokenId);\n        payable(seller).transfer(msg.value);\n    }\n\n    function onSale(uint256 tokenId) public view returns (bool) {\n        return _offeredForSale[tokenId] != 0;\n    }\n}",
  "sourcePath": "/root/Ethereum-ERC721-TestToken/ERC721/contracts/CustomERC721.sol",
  "compiler": {
    "name": "solc",
    "version": "0.8.11+commit.d7f03943.Emscripten.clang"
  },
  "schemaVersion": "3.4.4",
  "updatedAt": "2022-01-17T09:55:08.186Z",
  "devdoc": {
    "kind": "dev",
    "methods": {
      "approve(address,uint256)": {
        "details": "See {IERC721-approve}."
      },
      "balanceOf(address)": {
        "details": "See {IERC721-balanceOf}."
      },
      "getApproved(uint256)": {
        "details": "See {IERC721-getApproved}."
      },
      "isApprovedForAll(address,address)": {
        "details": "See {IERC721-isApprovedForAll}."
      },
      "name()": {
        "details": "See {IERC721Metadata-name}."
      },
      "ownerOf(uint256)": {
        "details": "See {IERC721-ownerOf}."
      },
      "safeTransferFrom(address,address,uint256)": {
        "details": "See {IERC721-safeTransferFrom}."
      },
      "safeTransferFrom(address,address,uint256,bytes)": {
        "details": "See {IERC721-safeTransferFrom}."
      },
      "setApprovalForAll(address,bool)": {
        "details": "See {IERC721-setApprovalForAll}."
      },
      "supportsInterface(bytes4)": {
        "details": "See {IERC165-supportsInterface}."
      },
      "symbol()": {
        "details": "See {IERC721Metadata-symbol}."
      },
      "tokenURI(uint256)": {
        "details": "See {IERC721Metadata-tokenURI}."
      },
      "transferFrom(address,address,uint256)": {
        "details": "See {IERC721-transferFrom}."
      }
    },
    "version": 1
  },
  "userdoc": {
    "kind": "user",
    "methods": {},
    "version": 1
  }
}